{
  "_format": "hh-sol-artifact-1",
  "contractName": "BountyBoard",
  "sourceName": "contracts/BountyBoard.sol",
  "abi": [
    {
      "inputs": [],
      "stateMutability": "nonpayable",
      "type": "constructor"
    },
    {
      "inputs": [],
      "name": "AlreadyReviewed",
      "type": "error"
    },
    {
      "inputs": [],
      "name": "BountyAlreadyCompleted",
      "type": "error"
    },
    {
      "inputs": [],
      "name": "BountyDoesNotExist",
      "type": "error"
    },
    {
      "inputs": [],
      "name": "BountyNotAcceptingSubmissions",
      "type": "error"
    },
    {
      "inputs": [],
      "name": "BountyNotClaimable",
      "type": "error"
    },
    {
      "inputs": [],
      "name": "BountyNotExpired",
      "type": "error"
    },
    {
      "inputs": [],
      "name": "CannotCancel",
      "type": "error"
    },
    {
      "inputs": [],
      "name": "ContentRequired",
      "type": "error"
    },
    {
      "inputs": [],
      "name": "CreatorCannotSubmit",
      "type": "error"
    },
    {
      "inputs": [],
      "name": "DeadlineMustBeInFuture",
      "type": "error"
    },
    {
      "inputs": [],
      "name": "DeadlinePassed",
      "type": "error"
    },
    {
      "inputs": [],
      "name": "FeeTooHigh",
      "type": "error"
    },
    {
      "inputs": [],
      "name": "HasSubmissions",
      "type": "error"
    },
    {
      "inputs": [],
      "name": "InvalidDifficulty",
      "type": "error"
    },
    {
      "inputs": [],
      "name": "NoFeesToWithdraw",
      "type": "error"
    },
    {
      "inputs": [],
      "name": "NotBountyCreator",
      "type": "error"
    },
    {
      "inputs": [],
      "name": "NotReviewer",
      "type": "error"
    },
    {
      "inputs": [
        {
          "internalType": "address",
          "name": "owner",
          "type": "address"
        }
      ],
      "name": "OwnableInvalidOwner",
      "type": "error"
    },
    {
      "inputs": [
        {
          "internalType": "address",
          "name": "account",
          "type": "address"
        }
      ],
      "name": "OwnableUnauthorizedAccount",
      "type": "error"
    },
    {
      "inputs": [],
      "name": "PaymentFailed",
      "type": "error"
    },
    {
      "inputs": [],
      "name": "ReentrancyGuardReentrantCall",
      "type": "error"
    },
    {
      "inputs": [],
      "name": "RefundFailed",
      "type": "error"
    },
    {
      "inputs": [],
      "name": "RewardTooLow",
      "type": "error"
    },
    {
      "inputs": [],
      "name": "SubmissionDoesNotExist",
      "type": "error"
    },
    {
      "inputs": [],
      "name": "TitleRequired",
      "type": "error"
    },
    {
      "inputs": [],
      "name": "WithdrawalFailed",
      "type": "error"
    },
    {
      "inputs": [],
      "name": "ZeroAddress",
      "type": "error"
    },
    {
      "anonymous": false,
      "inputs": [
        {
          "indexed": true,
          "internalType": "uint256",
          "name": "bountyId",
          "type": "uint256"
        },
        {
          "indexed": true,
          "internalType": "address",
          "name": "creator",
          "type": "address"
        }
      ],
      "name": "BountyCancelled",
      "type": "event"
    },
    {
      "anonymous": false,
      "inputs": [
        {
          "indexed": true,
          "internalType": "uint256",
          "name": "bountyId",
          "type": "uint256"
        },
        {
          "indexed": true,
          "internalType": "address",
          "name": "creator",
          "type": "address"
        },
        {
          "indexed": false,
          "internalType": "string",
          "name": "title",
          "type": "string"
        },
        {
          "indexed": false,
          "internalType": "uint256",
          "name": "reward",
          "type": "uint256"
        },
        {
          "indexed": false,
          "internalType": "uint256",
          "name": "deadline",
          "type": "uint256"
        }
      ],
      "name": "BountyCreated",
      "type": "event"
    },
    {
      "anonymous": false,
      "inputs": [
        {
          "indexed": true,
          "internalType": "uint256",
          "name": "bountyId",
          "type": "uint256"
        },
        {
          "indexed": false,
          "internalType": "enum BountyBoard.BountyStatus",
          "name": "status",
          "type": "uint8"
        }
      ],
      "name": "BountyUpdated",
      "type": "event"
    },
    {
      "anonymous": false,
      "inputs": [
        {
          "indexed": true,
          "internalType": "uint256",
          "name": "bountyId",
          "type": "uint256"
        },
        {
          "indexed": true,
          "internalType": "address",
          "name": "creator",
          "type": "address"
        },
        {
          "indexed": false,
          "internalType": "uint256",
          "name": "amount",
          "type": "uint256"
        }
      ],
      "name": "ExpiredBountyReclaimed",
      "type": "event"
    },
    {
      "anonymous": false,
      "inputs": [
        {
          "indexed": true,
          "internalType": "address",
          "name": "recipient",
          "type": "address"
        },
        {
          "indexed": false,
          "internalType": "uint256",
          "name": "amount",
          "type": "uint256"
        }
      ],
      "name": "FeesWithdrawn",
      "type": "event"
    },
    {
      "anonymous": false,
      "inputs": [
        {
          "indexed": false,
          "internalType": "uint256",
          "name": "oldMin",
          "type": "uint256"
        },
        {
          "indexed": false,
          "internalType": "uint256",
          "name": "newMin",
          "type": "uint256"
        }
      ],
      "name": "MinBountyRewardUpdated",
      "type": "event"
    },
    {
      "anonymous": false,
      "inputs": [
        {
          "indexed": true,
          "internalType": "address",
          "name": "previousOwner",
          "type": "address"
        },
        {
          "indexed": true,
          "internalType": "address",
          "name": "newOwner",
          "type": "address"
        }
      ],
      "name": "OwnershipTransferred",
      "type": "event"
    },
    {
      "anonymous": false,
      "inputs": [
        {
          "indexed": false,
          "internalType": "uint256",
          "name": "oldFee",
          "type": "uint256"
        },
        {
          "indexed": false,
          "internalType": "uint256",
          "name": "newFee",
          "type": "uint256"
        }
      ],
      "name": "PlatformFeeUpdated",
      "type": "event"
    },
    {
      "anonymous": false,
      "inputs": [
        {
          "indexed": true,
          "internalType": "address",
          "name": "oldAddress",
          "type": "address"
        },
        {
          "indexed": true,
          "internalType": "address",
          "name": "newAddress",
          "type": "address"
        }
      ],
      "name": "ReputationSystemUpdated",
      "type": "event"
    },
    {
      "anonymous": false,
      "inputs": [
        {
          "indexed": true,
          "internalType": "uint256",
          "name": "bountyId",
          "type": "uint256"
        },
        {
          "indexed": true,
          "internalType": "uint256",
          "name": "submissionId",
          "type": "uint256"
        },
        {
          "indexed": true,
          "internalType": "address",
          "name": "recipient",
          "type": "address"
        },
        {
          "indexed": false,
          "internalType": "uint256",
          "name": "amount",
          "type": "uint256"
        }
      ],
      "name": "RewardPaid",
      "type": "event"
    },
    {
      "anonymous": false,
      "inputs": [
        {
          "indexed": true,
          "internalType": "uint256",
          "name": "submissionId",
          "type": "uint256"
        },
        {
          "indexed": true,
          "internalType": "uint256",
          "name": "bountyId",
          "type": "uint256"
        },
        {
          "indexed": true,
          "internalType": "address",
          "name": "submitter",
          "type": "address"
        }
      ],
      "name": "SubmissionCreated",
      "type": "event"
    },
    {
      "anonymous": false,
      "inputs": [
        {
          "indexed": true,
          "internalType": "uint256",
          "name": "submissionId",
          "type": "uint256"
        },
        {
          "indexed": true,
          "internalType": "uint256",
          "name": "bountyId",
          "type": "uint256"
        },
        {
          "indexed": false,
          "internalType": "enum BountyBoard.SubmissionStatus",
          "name": "status",
          "type": "uint8"
        },
        {
          "indexed": true,
          "internalType": "address",
          "name": "reviewer",
          "type": "address"
        }
      ],
      "name": "SubmissionReviewed",
      "type": "event"
    },
    {
      "inputs": [],
      "name": "accumulatedFees",
      "outputs": [
        {
          "internalType": "uint256",
          "name": "",
          "type": "uint256"
        }
      ],
      "stateMutability": "view",
      "type": "function"
    },
    {
      "inputs": [
        {
          "internalType": "uint256",
          "name": "submissionId",
          "type": "uint256"
        },
        {
          "internalType": "string",
          "name": "comment",
          "type": "string"
        }
      ],
      "name": "approveSubmission",
      "outputs": [],
      "stateMutability": "nonpayable",
      "type": "function"
    },
    {
      "inputs": [
        {
          "internalType": "uint256",
          "name": "",
          "type": "uint256"
        }
      ],
      "name": "bounties",
      "outputs": [
        {
          "internalType": "uint256",
          "name": "id",
          "type": "uint256"
        },
        {
          "internalType": "address",
          "name": "creator",
          "type": "address"
        },
        {
          "internalType": "string",
          "name": "title",
          "type": "string"
        },
        {
          "internalType": "string",
          "name": "description",
          "type": "string"
        },
        {
          "internalType": "string",
          "name": "category",
          "type": "string"
        },
        {
          "internalType": "uint8",
          "name": "difficulty",
          "type": "uint8"
        },
        {
          "internalType": "uint256",
          "name": "reward",
          "type": "uint256"
        },
        {
          "internalType": "uint256",
          "name": "deadline",
          "type": "uint256"
        },
        {
          "internalType": "enum BountyBoard.BountyStatus",
          "name": "status",
          "type": "uint8"
        },
        {
          "internalType": "uint256",
          "name": "submissionCount",
          "type": "uint256"
        },
        {
          "internalType": "uint256",
          "name": "createdAt",
          "type": "uint256"
        }
      ],
      "stateMutability": "view",
      "type": "function"
    },
    {
      "inputs": [
        {
          "internalType": "uint256",
          "name": "",
          "type": "uint256"
        },
        {
          "internalType": "uint256",
          "name": "",
          "type": "uint256"
        }
      ],
      "name": "bountySubmissions",
      "outputs": [
        {
          "internalType": "uint256",
          "name": "",
          "type": "uint256"
        }
      ],
      "stateMutability": "view",
      "type": "function"
    },
    {
      "inputs": [
        {
          "internalType": "uint256",
          "name": "bountyId",
          "type": "uint256"
        }
      ],
      "name": "cancelBounty",
      "outputs": [],
      "stateMutability": "nonpayable",
      "type": "function"
    },
    {
      "inputs": [
        {
          "internalType": "string",
          "name": "title",
          "type": "string"
        },
        {
          "internalType": "string",
          "name": "description",
          "type": "string"
        },
        {
          "internalType": "string",
          "name": "category",
          "type": "string"
        },
        {
          "internalType": "uint8",
          "name": "difficulty",
          "type": "uint8"
        },
        {
          "internalType": "uint256",
          "name": "deadline",
          "type": "uint256"
        }
      ],
      "name": "createBounty",
      "outputs": [],
      "stateMutability": "payable",
      "type": "function"
    },
    {
      "inputs": [
        {
          "internalType": "uint256",
          "name": "bountyId",
          "type": "uint256"
        }
      ],
      "name": "getBounty",
      "outputs": [
        {
          "components": [
            {
              "internalType": "uint256",
              "name": "id",
              "type": "uint256"
            },
            {
              "internalType": "address",
              "name": "creator",
              "type": "address"
            },
            {
              "internalType": "string",
              "name": "title",
              "type": "string"
            },
            {
              "internalType": "string",
              "name": "description",
              "type": "string"
            },
            {
              "internalType": "string",
              "name": "category",
              "type": "string"
            },
            {
              "internalType": "uint8",
              "name": "difficulty",
              "type": "uint8"
            },
            {
              "internalType": "uint256",
              "name": "reward",
              "type": "uint256"
            },
            {
              "internalType": "uint256",
              "name": "deadline",
              "type": "uint256"
            },
            {
              "internalType": "enum BountyBoard.BountyStatus",
              "name": "status",
              "type": "uint8"
            },
            {
              "internalType": "uint256",
              "name": "submissionCount",
              "type": "uint256"
            },
            {
              "internalType": "uint256",
              "name": "createdAt",
              "type": "uint256"
            }
          ],
          "internalType": "struct BountyBoard.Bounty",
          "name": "",
          "type": "tuple"
        }
      ],
      "stateMutability": "view",
      "type": "function"
    },
    {
      "inputs": [],
      "name": "getBountyCount",
      "outputs": [
        {
          "internalType": "uint256",
          "name": "",
          "type": "uint256"
        }
      ],
      "stateMutability": "view",
      "type": "function"
    },
    {
      "inputs": [
        {
          "internalType": "uint256",
          "name": "bountyId",
          "type": "uint256"
        }
      ],
      "name": "getBountySubmissions",
      "outputs": [
        {
          "internalType": "uint256[]",
          "name": "",
          "type": "uint256[]"
        }
      ],
      "stateMutability": "view",
      "type": "function"
    },
    {
      "inputs": [
        {
          "internalType": "uint256",
          "name": "submissionId",
          "type": "uint256"
        }
      ],
      "name": "getSubmission",
      "outputs": [
        {
          "components": [
            {
              "internalType": "uint256",
              "name": "id",
              "type": "uint256"
            },
            {
              "internalType": "uint256",
              "name": "bountyId",
              "type": "uint256"
            },
            {
              "internalType": "address",
              "name": "submitter",
              "type": "address"
            },
            {
              "internalType": "string",
              "name": "content",
              "type": "string"
            },
            {
              "internalType": "enum BountyBoard.SubmissionStatus",
              "name": "status",
              "type": "uint8"
            },
            {
              "internalType": "uint256",
              "name": "submittedAt",
              "type": "uint256"
            },
            {
              "internalType": "string",
              "name": "reviewComment",
              "type": "string"
            }
          ],
          "internalType": "struct BountyBoard.Submission",
          "name": "",
          "type": "tuple"
        }
      ],
      "stateMutability": "view",
      "type": "function"
    },
    {
      "inputs": [],
      "name": "getSubmissionCount",
      "outputs": [
        {
          "internalType": "uint256",
          "name": "",
          "type": "uint256"
        }
      ],
      "stateMutability": "view",
      "type": "function"
    },
    {
      "inputs": [
        {
          "internalType": "address",
          "name": "user",
          "type": "address"
        }
      ],
      "name": "getUserBounties",
      "outputs": [
        {
          "internalType": "uint256[]",
          "name": "",
          "type": "uint256[]"
        }
      ],
      "stateMutability": "view",
      "type": "function"
    },
    {
      "inputs": [
        {
          "internalType": "address",
          "name": "user",
          "type": "address"
        }
      ],
      "name": "getUserSubmissions",
      "outputs": [
        {
          "internalType": "uint256[]",
          "name": "",
          "type": "uint256[]"
        }
      ],
      "stateMutability": "view",
      "type": "function"
    },
    {
      "inputs": [],
      "name": "minBountyReward",
      "outputs": [
        {
          "internalType": "uint256",
          "name": "",
          "type": "uint256"
        }
      ],
      "stateMutability": "view",
      "type": "function"
    },
    {
      "inputs": [],
      "name": "nextBountyId",
      "outputs": [
        {
          "internalType": "uint256",
          "name": "",
          "type": "uint256"
        }
      ],
      "stateMutability": "view",
      "type": "function"
    },
    {
      "inputs": [],
      "name": "nextSubmissionId",
      "outputs": [
        {
          "internalType": "uint256",
          "name": "",
          "type": "uint256"
        }
      ],
      "stateMutability": "view",
      "type": "function"
    },
    {
      "inputs": [],
      "name": "owner",
      "outputs": [
        {
          "internalType": "address",
          "name": "",
          "type": "address"
        }
      ],
      "stateMutability": "view",
      "type": "function"
    },
    {
      "inputs": [],
      "name": "platformFeePercent",
      "outputs": [
        {
          "internalType": "uint256",
          "name": "",
          "type": "uint256"
        }
      ],
      "stateMutability": "view",
      "type": "function"
    },
    {
      "inputs": [
        {
          "internalType": "uint256",
          "name": "bountyId",
          "type": "uint256"
        }
      ],
      "name": "reclaimExpiredBounty",
      "outputs": [],
      "stateMutability": "nonpayable",
      "type": "function"
    },
    {
      "inputs": [
        {
          "internalType": "uint256",
          "name": "submissionId",
          "type": "uint256"
        },
        {
          "internalType": "string",
          "name": "comment",
          "type": "string"
        }
      ],
      "name": "rejectSubmission",
      "outputs": [],
      "stateMutability": "nonpayable",
      "type": "function"
    },
    {
      "inputs": [],
      "name": "renounceOwnership",
      "outputs": [],
      "stateMutability": "nonpayable",
      "type": "function"
    },
    {
      "inputs": [],
      "name": "reputationSystem",
      "outputs": [
        {
          "internalType": "contract IReputationSystem",
          "name": "",
          "type": "address"
        }
      ],
      "stateMutability": "view",
      "type": "function"
    },
    {
      "inputs": [
        {
          "internalType": "uint256",
          "name": "minReward",
          "type": "uint256"
        }
      ],
      "name": "setMinBountyReward",
      "outputs": [],
      "stateMutability": "nonpayable",
      "type": "function"
    },
    {
      "inputs": [
        {
          "internalType": "uint256",
          "name": "feePercent",
          "type": "uint256"
        }
      ],
      "name": "setPlatformFee",
      "outputs": [],
      "stateMutability": "nonpayable",
      "type": "function"
    },
    {
      "inputs": [
        {
          "internalType": "address",
          "name": "_reputationSystem",
          "type": "address"
        }
      ],
      "name": "setReputationSystem",
      "outputs": [],
      "stateMutability": "nonpayable",
      "type": "function"
    },
    {
      "inputs": [
        {
          "internalType": "uint256",
          "name": "",
          "type": "uint256"
        }
      ],
      "name": "submissions",
      "outputs": [
        {
          "internalType": "uint256",
          "name": "id",
          "type": "uint256"
        },
        {
          "internalType": "uint256",
          "name": "bountyId",
          "type": "uint256"
        },
        {
          "internalType": "address",
          "name": "submitter",
          "type": "address"
        },
        {
          "internalType": "string",
          "name": "content",
          "type": "string"
        },
        {
          "internalType": "enum BountyBoard.SubmissionStatus",
          "name": "status",
          "type": "uint8"
        },
        {
          "internalType": "uint256",
          "name": "submittedAt",
          "type": "uint256"
        },
        {
          "internalType": "string",
          "name": "reviewComment",
          "type": "string"
        }
      ],
      "stateMutability": "view",
      "type": "function"
    },
    {
      "inputs": [
        {
          "internalType": "uint256",
          "name": "bountyId",
          "type": "uint256"
        },
        {
          "internalType": "string",
          "name": "content",
          "type": "string"
        }
      ],
      "name": "submitSolution",
      "outputs": [],
      "stateMutability": "nonpayable",
      "type": "function"
    },
    {
      "inputs": [
        {
          "internalType": "address",
          "name": "newOwner",
          "type": "address"
        }
      ],
      "name": "transferOwnership",
      "outputs": [],
      "stateMutability": "nonpayable",
      "type": "function"
    },
    {
      "inputs": [
        {
          "internalType": "address",
          "name": "",
          "type": "address"
        },
        {
          "internalType": "uint256",
          "name": "",
          "type": "uint256"
        }
      ],
      "name": "userBounties",
      "outputs": [
        {
          "internalType": "uint256",
          "name": "",
          "type": "uint256"
        }
      ],
      "stateMutability": "view",
      "type": "function"
    },
    {
      "inputs": [
        {
          "internalType": "address",
          "name": "",
          "type": "address"
        },
        {
          "internalType": "uint256",
          "name": "",
          "type": "uint256"
        }
      ],
      "name": "userSubmissions",
      "outputs": [
        {
          "internalType": "uint256",
          "name": "",
          "type": "uint256"
        }
      ],
      "stateMutability": "view",
      "type": "function"
    },
    {
      "inputs": [],
      "name": "withdrawFees",
      "outputs": [],
      "stateMutability": "nonpayable",
      "type": "function"
    },
    {
      "stateMutability": "payable",
      "type": "receive"
    }
  ],
  "bytecode": "0x6080604052600160025560016003556005600455662386f26fc1000060055534801561002a57600080fd5b50338061005157604051631e4fbdf760e01b81526000600482015260240160405180910390fd5b61005a81610064565b50600180556100b4565b600080546001600160a01b038381166001600160a01b0319831681178455604051919092169283917f8be0079c531659141344cd1fd0a4f28419497f9722a3daafe3b4186f6b6457e09190a35050565b612a3a80620000c46000396000f3fe6080604052600436106101dc5760003560e01c80637331366011610102578063ad73349e11610095578063e5e5dff111610064578063e5e5dff114610556578063ee8c4bbf14610576578063f2fde38b146105a3578063fd14fad4146105c357600080fd5b8063ad73349e146104b6578063c53c96f4146104e9578063d3b5c016146104ff578063dc2f87441461051f57600080fd5b80639999d2ae116100d15780639999d2ae1461044157806399ad4112146104565780639b7e018014610476578063a7b8614d1461049657600080fd5b806373313660146103cd5780638c639a85146103ed5780638da5cb5b1461040357806392af09621461042157600080fd5b8063429e23981161017a5780636587eda1116101495780636587eda1146103405780636591a185146103785780636e570a72146103a5578063715018a6146103b857600080fd5b8063429e2398146102d5578063476343ee146102f5578063587f5ed71461030a5780635c3a42751461032057600080fd5b80632b9234b9116101b65780632b9234b91461025257806331143cee1461027257806335b96901146102925780633e8686cc146102a857600080fd5b806306641f7e146101e85780630f9a95a41461021057806312e8e2c31461023257600080fd5b366101e357005b600080fd5b3480156101f457600080fd5b506101fd6105d9565b6040519081526020015b60405180910390f35b34801561021c57600080fd5b5061023061022b3660046121c0565b6105ef565b005b34801561023e57600080fd5b5061023061024d3660046121c0565b6107eb565b34801561025e57600080fd5b506101fd61026d3660046121f5565b61085b565b34801561027e57600080fd5b5061023061028d36600461221f565b61088c565b34801561029e57600080fd5b506101fd60035481565b3480156102b457600080fd5b506102c86102c33660046121c0565b6108e6565b60405161020791906122b1565b3480156102e157600080fd5b506101fd6102f0366004612337565b610ad4565b34801561030157600080fd5b50610230610af0565b34801561031657600080fd5b506101fd60065481565b34801561032c57600080fd5b5061023061033b3660046121c0565b610bf9565b34801561034c57600080fd5b50600754610360906001600160a01b031681565b6040516001600160a01b039091168152602001610207565b34801561038457600080fd5b5061039861039336600461221f565b610c3f565b6040516102079190612359565b6102306103b33660046123e6565b610cab565b3480156103c457600080fd5b50610230610fb8565b3480156103d957600080fd5b506102306103e83660046124a3565b610fca565b3480156103f957600080fd5b506101fd60045481565b34801561040f57600080fd5b506000546001600160a01b0316610360565b34801561042d57600080fd5b5061039861043c3660046121c0565b611175565b34801561044d57600080fd5b506101fd6111d5565b34801561046257600080fd5b506102306104713660046124a3565b6111e6565b34801561048257600080fd5b506101fd6104913660046121f5565b61153f565b3480156104a257600080fd5b506103986104b136600461221f565b61155b565b3480156104c257600080fd5b506104d66104d13660046121c0565b6115c5565b60405161020797969594939291906124ef565b3480156104f557600080fd5b506101fd60055481565b34801561050b57600080fd5b5061023061051a3660046124a3565b611724565b34801561052b57600080fd5b5061053f61053a3660046121c0565b611a5b565b6040516102079b9a9998979695949392919061255f565b34801561056257600080fd5b506102306105713660046121c0565b611c57565b34801561058257600080fd5b506105966105913660046121c0565b611dfb565b60405161020791906125f3565b3480156105af57600080fd5b506102306105be36600461221f565b612062565b3480156105cf57600080fd5b506101fd60025481565b600060016002546105ea91906126eb565b905090565b6105f76120a2565b600081815260086020526040812054829103610626576040516340a873ef60e11b815260040160405180910390fd5b60008281526008602052604090206001015482906001600160a01b0316331461066257604051636431e4c160e11b815260040160405180910390fd5b60008381526008602052604090206007810154421161069457604051637bd500c960e01b815260040160405180910390fd5b6003600882015460ff1660048111156106af576106af612287565b14806106d357506004600882015460ff1660048111156106d1576106d1612287565b145b156106f157604051631a6e655f60e21b815260040160405180910390fd5b60088101805460ff19166004179055600681015460405160009133918381818185875af1925050503d8060008114610745576040519150601f19603f3d011682016040523d82523d6000602084013e61074a565b606091505b505090508061076c57604051633c31275160e21b815260040160405180910390fd5b336001600160a01b0316857fe40de65054c95775503bd0c36041c8b6585e1f421a64c85f95a99818c61cba5584600601546040516107ac91815260200190565b60405180910390a3846000805160206129e583398151915260046040516107d39190612704565b60405180910390a2505050506107e860018055565b50565b6107f36120cc565b60148111156108155760405163cd4e616760e01b815260040160405180910390fd5b600480549082905560408051828152602081018490527fd347e206f25a89b917fc9482f1a2d294d749baa4dc9bde7fb495ee11fe49164391015b60405180910390a15050565b600b602052816000526040600020818154811061087757600080fd5b90600052602060002001600091509150505481565b6108946120cc565b600780546001600160a01b038381166001600160a01b0319831681179093556040519116919082907f741c82c4e48d74e815a9f6b75e9e5c7ebbf19c5fd9bbe8203db65146145eb4f190600090a35050565b6109256040805160e081018252600080825260208201819052918101829052606080820152906080820190815260200160008152602001606081525090565b600082815260096020908152604091829020825160e0810184528154815260018201549281019290925260028101546001600160a01b03169282019290925260038201805491929160608401919061097c90612712565b80601f01602080910402602001604051908101604052809291908181526020018280546109a890612712565b80156109f55780601f106109ca576101008083540402835291602001916109f5565b820191906000526020600020905b8154815290600101906020018083116109d857829003601f168201915b5050509183525050600482015460209091019060ff166003811115610a1c57610a1c612287565b6003811115610a2d57610a2d612287565b815260200160058201548152602001600682018054610a4b90612712565b80601f0160208091040260200160405190810160405280929190818152602001828054610a7790612712565b8015610ac45780601f10610a9957610100808354040283529160200191610ac4565b820191906000526020600020905b815481529060010190602001808311610aa757829003601f168201915b5050505050815250509050919050565b600a602052816000526040600020818154811061087757600080fd5b610af86120cc565b610b006120a2565b6006546000819003610b2557604051630d00db4d60e31b815260040160405180910390fd5b6000600681905580546040516001600160a01b039091169083908381818185875af1925050503d8060008114610b77576040519150601f19603f3d011682016040523d82523d6000602084013e610b7c565b606091505b5050905080610b9e576040516327fcd9d160e01b815260040160405180910390fd5b6000546001600160a01b03166001600160a01b03167fc0819c13be868895eb93e40eaceb96de976442fa1d404e5c55f14bb65a8c489a83604051610be491815260200190565b60405180910390a25050610bf760018055565b565b610c016120cc565b600580549082905560408051828152602081018490527fea833e09949f025b5a524cab605648bf0f6fa0198ac299bc7415ffd3ff6cebc7910161084f565b6001600160a01b0381166000908152600b6020908152604091829020805483518184028101840190945280845260609392830182828015610c9f57602002820191906000526020600020905b815481526020019060010190808311610c8b575b50505050509050919050565b610cb36120a2565b600554341015610cd65760405163256eeaad60e01b815260040160405180910390fd5b428111610cf657604051630642ce7760e01b815260040160405180910390fd5b60018260ff161080610d0b575060048260ff16115b15610d295760405163eff9b19d60e01b815260040160405180910390fd5b6000879003610d4b576040516319d546f160e31b815260040160405180910390fd5b6002805460009182610d5c8361274c565b919050559050604051806101600160405280828152602001336001600160a01b031681526020018a8a8080601f016020809104026020016040519081016040528093929190818152602001838380828437600092019190915250505090825250604080516020601f8b0181900481028201810190925289815291810191908a908a9081908401838280828437600092019190915250505090825250604080516020601f890181900481028201810190925287815291810191908890889081908401838280828437600092018290525093855250505060ff861660208301523460408301526060820185905260809091019081526000602080830182905242604093840152848252600881529082902083518155908301516001820180546001600160a01b0319166001600160a01b03909216919091179055908201516002820190610ea790826127c9565b5060608201516003820190610ebc90826127c9565b5060808201516004820190610ed190826127c9565b5060a082015160058201805460ff90921660ff1992831617905560c0830151600683015560e0830151600783015561010083015160088301805491929091166001836004811115610f2457610f24612287565b0217905550610120820151600982015561014090910151600a90910155336000818152600b60209081526040808320805460018101825590845291909220018390555182907f4e9ff8debce04524518777fdf120513b8f7e1f434da1099fd190d1aae0d495b690610f9c908d908d9034908990612889565b60405180910390a350610fae60018055565b5050505050505050565b610fc06120cc565b610bf760006120f9565b600083815260096020526040812054849103610ff957604051632802fcef60e11b815260040160405180910390fd5b6000848152600960209081526040808320600180820154855260089093529220908101546001600160a01b0316331480159061104057506000546001600160a01b03163314155b1561105e57604051631bed7fef60e21b815260040160405180910390fd5b6000600483015460ff16600381111561107957611079612287565b14611097576040516396c3b41160e01b815260040160405180910390fd5b60048201805460ff19166003179055600682016110b58587836128c9565b506007546001600160a01b0316156111255760075460028301546040516319e18ccb60e11b81526001600160a01b0391821660048201529116906333c3199690602401600060405180830381600087803b15801561111257600080fd5b505af1925050508015611123575060015b505b336001600160a01b03168260010154877fd392bc0fab31cea49918dfbe3088a1cde2ed8fad3842fcbbdf82c522c0d177d26003604051611165919061298a565b60405180910390a4505050505050565b6000818152600a6020908152604091829020805483518184028101840190945280845260609392830182828015610c9f5760200282019190600052602060002090815481526020019060010190808311610c8b5750505050509050919050565b600060016003546105ea91906126eb565b6111ee6120a2565b60008381526009602052604081205484910361121d57604051632802fcef60e11b815260040160405180910390fd5b6000848152600960209081526040808320600180820154855260089093529220908101546001600160a01b0316331480159061126457506000546001600160a01b03163314155b1561128257604051631bed7fef60e21b815260040160405180910390fd5b6000600483015460ff16600381111561129d5761129d612287565b146112bb576040516396c3b41160e01b815260040160405180910390fd5b6003600882015460ff1660048111156112d6576112d6612287565b036112f4576040516326182e5f60e11b815260040160405180910390fd5b60048201805460ff19166002179055600682016113128587836128c9565b5060088101805460ff19166003179055600454600682015460009160649161133a9190612998565b61134491906129af565b9050600081836006015461135891906126eb565b9050816006600082825461136c91906129d1565b909155505060028401546040516000916001600160a01b03169083908381818185875af1925050503d80600081146113c0576040519150601f19603f3d011682016040523d82523d6000602084013e6113c5565b606091505b50509050806113e7576040516307a4ced160e51b815260040160405180910390fd5b6007546001600160a01b03161561146c5760075460028601546005860154604051630a0f03f960e01b81526001600160a01b03928316600482015260ff909116602482015260448101859052911690630a0f03f990606401600060405180830381600087803b15801561145957600080fd5b505af192505050801561146a575060015b505b336001600160a01b031685600101548a7fd392bc0fab31cea49918dfbe3088a1cde2ed8fad3842fcbbdf82c522c0d177d260026040516114ac919061298a565b60405180910390a4600285015460018601546040518481526001600160a01b03909216918b91907f948a6b23642cd8250e916708e5abe784e0d7a2f77937955f8906335408fd7dec9060200160405180910390a484600101546000805160206129e583398151915260036040516115239190612704565b60405180910390a250505050505061153a60018055565b505050565b600c602052816000526040600020818154811061087757600080fd5b6001600160a01b0381166000908152600c6020908152604091829020805483518184028101840190945280845260609392830182828015610c9f5760200282019190600052602060002090815481526020019060010190808311610c8b5750505050509050919050565b6009602052600090815260409020805460018201546002830154600384018054939492936001600160a01b0390921692916115ff90612712565b80601f016020809104026020016040519081016040528092919081815260200182805461162b90612712565b80156116785780601f1061164d57610100808354040283529160200191611678565b820191906000526020600020905b81548152906001019060200180831161165b57829003601f168201915b5050505060048301546005840154600685018054949560ff90931694919350906116a190612712565b80601f01602080910402602001604051908101604052809291908181526020018280546116cd90612712565b801561171a5780601f106116ef5761010080835404028352916020019161171a565b820191906000526020600020905b8154815290600101906020018083116116fd57829003601f168201915b5050505050905087565b61172c6120a2565b60008381526008602052604081205484910361175b576040516340a873ef60e11b815260040160405180910390fd5b600084815260086020526040812090600882015460ff16600481111561178357611783612287565b141580156117aa57506001600882015460ff1660048111156117a7576117a7612287565b14155b156117c8576040516328ed2b1f60e21b815260040160405180910390fd5b80600701544211156117ed5760405163387b2e5560e11b815260040160405180910390fd5b6001810154336001600160a01b039091160361181c57604051630f23814f60e11b815260040160405180910390fd5b600083900361183e57604051632981b76960e21b815260040160405180910390fd5b600380546000918261184f8361274c565b9190505590506040518060e00160405280828152602001878152602001336001600160a01b0316815260200186868080601f0160208091040260200160405190810160405280939291908181526020018383808284376000920182905250938552505060209092019150815242602080830191909152604080518083018252600080825293820152848352600982529182902083518155908301516001820155908201516002820180546001600160a01b0319166001600160a01b039092169190911790556060820151600382019061192890826127c9565b50608082015160048201805460ff1916600183600381111561194c5761194c612287565b021790555060a0820151600582015560c0820151600682019061196f90826127c9565b5050506000868152600a6020908152604080832080546001818101835591855283852001859055338452600c835290832080549182018155835290822001829055600983018054916119c08361274c565b9091555060009050600883015460ff1660048111156119e1576119e1612287565b03611a205760088201805460ff1916600190811790915560405187916000805160206129e583398151915291611a179190612704565b60405180910390a25b6040513390879083907fb278a68dfafcc5cc9a48159e0a7ca53d17d27a71d312bbbc962e8d79dcd34cfb90600090a450505061153a60018055565b60086020526000908152604090208054600182015460028301805492936001600160a01b0390921692611a8d90612712565b80601f0160208091040260200160405190810160405280929190818152602001828054611ab990612712565b8015611b065780601f10611adb57610100808354040283529160200191611b06565b820191906000526020600020905b815481529060010190602001808311611ae957829003601f168201915b505050505090806003018054611b1b90612712565b80601f0160208091040260200160405190810160405280929190818152602001828054611b4790612712565b8015611b945780601f10611b6957610100808354040283529160200191611b94565b820191906000526020600020905b815481529060010190602001808311611b7757829003601f168201915b505050505090806004018054611ba990612712565b80601f0160208091040260200160405190810160405280929190818152602001828054611bd590612712565b8015611c225780601f10611bf757610100808354040283529160200191611c22565b820191906000526020600020905b815481529060010190602001808311611c0557829003601f168201915b5050505060058301546006840154600785015460088601546009870154600a90970154959660ff94851696939550919316918b565b611c5f6120a2565b600081815260086020526040812054829103611c8e576040516340a873ef60e11b815260040160405180910390fd5b60008281526008602052604090206001015482906001600160a01b03163314611cca57604051636431e4c160e11b815260040160405180910390fd5b6000838152600860205260409020600981015415611cfb57604051634826444b60e01b815260040160405180910390fd5b6000600882015460ff166004811115611d1657611d16612287565b14611d3457604051631f7806af60e31b815260040160405180910390fd5b60088101805460ff19166004179055600681015460405160009133918381818185875af1925050503d8060008114611d88576040519150601f19603f3d011682016040523d82523d6000602084013e611d8d565b606091505b5050905080611daf57604051633c31275160e21b815260040160405180910390fd5b604051339086907fbe34663bc2803ca9be398afdbd7e0bd537378360b743b76b170e3421fbe3845090600090a3846000805160206129e583398151915260046040516107d39190612704565b611e03612149565b6000828152600860209081526040918290208251610160810184528154815260018201546001600160a01b0316928101929092526002810180549293919291840191611e4e90612712565b80601f0160208091040260200160405190810160405280929190818152602001828054611e7a90612712565b8015611ec75780601f10611e9c57610100808354040283529160200191611ec7565b820191906000526020600020905b815481529060010190602001808311611eaa57829003601f168201915b50505050508152602001600382018054611ee090612712565b80601f0160208091040260200160405190810160405280929190818152602001828054611f0c90612712565b8015611f595780601f10611f2e57610100808354040283529160200191611f59565b820191906000526020600020905b815481529060010190602001808311611f3c57829003601f168201915b50505050508152602001600482018054611f7290612712565b80601f0160208091040260200160405190810160405280929190818152602001828054611f9e90612712565b8015611feb5780601f10611fc057610100808354040283529160200191611feb565b820191906000526020600020905b815481529060010190602001808311611fce57829003601f168201915b5050509183525050600582015460ff90811660208301526006830154604083015260078301546060830152600883015460809092019116600481111561203357612033612287565b600481111561204457612044612287565b815260098201546020820152600a9091015460409091015292915050565b61206a6120cc565b6001600160a01b03811661209957604051631e4fbdf760e01b8152600060048201526024015b60405180910390fd5b6107e8816120f9565b6002600154036120c557604051633ee5aeb560e01b815260040160405180910390fd5b6002600155565b6000546001600160a01b03163314610bf75760405163118cdaa760e01b8152336004820152602401612090565b600080546001600160a01b038381166001600160a01b0319831681178455604051919092169283917f8be0079c531659141344cd1fd0a4f28419497f9722a3daafe3b4186f6b6457e09190a35050565b6040518061016001604052806000815260200160006001600160a01b03168152602001606081526020016060815260200160608152602001600060ff1681526020016000815260200160008152602001600060048111156121ac576121ac612287565b815260200160008152602001600081525090565b6000602082840312156121d257600080fd5b5035919050565b80356001600160a01b03811681146121f057600080fd5b919050565b6000806040838503121561220857600080fd5b612211836121d9565b946020939093013593505050565b60006020828403121561223157600080fd5b61223a826121d9565b9392505050565b6000815180845260005b818110156122675760208185018101518683018201520161224b565b506000602082860101526020601f19601f83011685010191505092915050565b634e487b7160e01b600052602160045260246000fd5b600481106122ad576122ad612287565b9052565b60208152815160208201526020820151604082015260018060a01b0360408301511660608201526000606083015160e060808401526122f4610100840182612241565b9050608084015161230860a085018261229d565b5060a084015160c084015260c0840151601f198483030160e085015261232e8282612241565b95945050505050565b6000806040838503121561234a57600080fd5b50508035926020909101359150565b6020808252825182820181905260009190848201906040850190845b8181101561239157835183529284019291840191600101612375565b50909695505050505050565b60008083601f8401126123af57600080fd5b50813567ffffffffffffffff8111156123c757600080fd5b6020830191508360208285010111156123df57600080fd5b9250929050565b60008060008060008060008060a0898b03121561240257600080fd5b883567ffffffffffffffff8082111561241a57600080fd5b6124268c838d0161239d565b909a50985060208b013591508082111561243f57600080fd5b61244b8c838d0161239d565b909850965060408b013591508082111561246457600080fd5b506124718b828c0161239d565b909550935050606089013560ff8116811461248b57600080fd5b80925050608089013590509295985092959890939650565b6000806000604084860312156124b857600080fd5b83359250602084013567ffffffffffffffff8111156124d657600080fd5b6124e28682870161239d565b9497909650939450505050565b87815286602082015260018060a01b038616604082015260e06060820152600061251c60e0830187612241565b612529608084018761229d565b8460a084015282810360c08401526125418185612241565b9a9950505050505050505050565b600581106122ad576122ad612287565b8b81526001600160a01b038b1660208201526101606040820181905260009061258a8382018d612241565b9050828103606084015261259e818c612241565b905082810360808401526125b2818b612241565b91505060ff881660a08301528660c08301528560e08301526125d861010083018661254f565b61012082019390935261014001529998505050505050505050565b60208152815160208201526000602083015161261a60408401826001600160a01b03169052565b506040830151610160806060850152612637610180850183612241565b91506060850151601f19808685030160808701526126558483612241565b935060808701519150808685030160a0870152506126738382612241565b92505060a085015161268a60c086018260ff169052565b5060c085015160e085015260e08501516101008181870152808701519150506101206126b88187018361254f565b860151610140868101919091529095015193019290925250919050565b634e487b7160e01b600052601160045260246000fd5b818103818111156126fe576126fe6126d5565b92915050565b602081016126fe828461254f565b600181811c9082168061272657607f821691505b60208210810361274657634e487b7160e01b600052602260045260246000fd5b50919050565b60006001820161275e5761275e6126d5565b5060010190565b634e487b7160e01b600052604160045260246000fd5b601f82111561153a57600081815260208120601f850160051c810160208610156127a25750805b601f850160051c820191505b818110156127c1578281556001016127ae565b505050505050565b815167ffffffffffffffff8111156127e3576127e3612765565b6127f7816127f18454612712565b8461277b565b602080601f83116001811461282c57600084156128145750858301515b600019600386901b1c1916600185901b1785556127c1565b600085815260208120601f198616915b8281101561285b5788860151825594840194600190910190840161283c565b50858210156128795787850151600019600388901b60f8161c191681555b5050505050600190811b01905550565b606081528360608201528385608083013760006080858301015260006080601f19601f870116830101905083602083015282604083015295945050505050565b67ffffffffffffffff8311156128e1576128e1612765565b6128f5836128ef8354612712565b8361277b565b6000601f84116001811461292957600085156129115750838201355b600019600387901b1c1916600186901b178355612983565b600083815260209020601f19861690835b8281101561295a578685013582556020948501946001909201910161293a565b50868210156129775760001960f88860031b161c19848701351681555b505060018560011b0183555b5050505050565b602081016126fe828461229d565b80820281158282048414176126fe576126fe6126d5565b6000826129cc57634e487b7160e01b600052601260045260246000fd5b500490565b808201808211156126fe576126fe6126d556fe5a4a76647559f20140841e3974a4537cb6a35675c5c8691432243129423c1148a2646970667358221220f5d1552118322fce2bca118c7a370ee0490034b67cb2ebfda0d5360cf124290264736f6c63430008140033",
  "linkReferences": {},
  "deployedLinkReferences": {}
}