{
  "_format": "hh-sol-artifact-1",
  "contractName": "ReputationSystem",
  "sourceName": "contracts/ReputationSystem.sol",
  "abi": [
    {
      "inputs": [
        {
          "internalType": "address",
          "name": "_bountyBoard",
          "type": "address"
        }
      ],
      "stateMutability": "nonpayable",
      "type": "constructor"
    },
    {
      "inputs": [],
      "name": "LimitTooHigh",
      "type": "error"
    },
    {
      "inputs": [],
      "name": "OnlyBountyBoard",
      "type": "error"
    },
    {
      "inputs": [
        {
          "internalType": "address",
          "name": "owner",
          "type": "address"
        }
      ],
      "name": "OwnableInvalidOwner",
      "type": "error"
    },
    {
      "inputs": [
        {
          "internalType": "address",
          "name": "account",
          "type": "address"
        }
      ],
      "name": "OwnableUnauthorizedAccount",
      "type": "error"
    },
    {
      "inputs": [],
      "name": "ZeroAddress",
      "type": "error"
    },
    {
      "anonymous": false,
      "inputs": [
        {
          "indexed": true,
          "internalType": "address",
          "name": "oldAddress",
          "type": "address"
        },
        {
          "indexed": true,
          "internalType": "address",
          "name": "newAddress",
          "type": "address"
        }
      ],
      "name": "BountyBoardUpdated",
      "type": "event"
    },
    {
      "anonymous": false,
      "inputs": [
        {
          "indexed": true,
          "internalType": "address",
          "name": "previousOwner",
          "type": "address"
        },
        {
          "indexed": true,
          "internalType": "address",
          "name": "newOwner",
          "type": "address"
        }
      ],
      "name": "OwnershipTransferred",
      "type": "event"
    },
    {
      "anonymous": false,
      "inputs": [
        {
          "indexed": true,
          "internalType": "address",
          "name": "researcher",
          "type": "address"
        },
        {
          "indexed": false,
          "internalType": "uint256",
          "name": "newPoints",
          "type": "uint256"
        },
        {
          "indexed": false,
          "internalType": "uint256",
          "name": "totalPoints",
          "type": "uint256"
        }
      ],
      "name": "ReputationUpdated",
      "type": "event"
    },
    {
      "anonymous": false,
      "inputs": [
        {
          "indexed": true,
          "internalType": "address",
          "name": "researcher",
          "type": "address"
        }
      ],
      "name": "ResearcherRegistered",
      "type": "event"
    },
    {
      "anonymous": false,
      "inputs": [
        {
          "indexed": true,
          "internalType": "address",
          "name": "researcher",
          "type": "address"
        },
        {
          "indexed": false,
          "internalType": "bool",
          "name": "approved",
          "type": "bool"
        },
        {
          "indexed": false,
          "internalType": "uint256",
          "name": "earnings",
          "type": "uint256"
        }
      ],
      "name": "SubmissionRecorded",
      "type": "event"
    },
    {
      "inputs": [],
      "name": "LEVEL_CRYPTOGRAPHER",
      "outputs": [
        {
          "internalType": "uint256",
          "name": "",
          "type": "uint256"
        }
      ],
      "stateMutability": "view",
      "type": "function"
    },
    {
      "inputs": [],
      "name": "LEVEL_EXPERT",
      "outputs": [
        {
          "internalType": "uint256",
          "name": "",
          "type": "uint256"
        }
      ],
      "stateMutability": "view",
      "type": "function"
    },
    {
      "inputs": [],
      "name": "LEVEL_LEGEND",
      "outputs": [
        {
          "internalType": "uint256",
          "name": "",
          "type": "uint256"
        }
      ],
      "stateMutability": "view",
      "type": "function"
    },
    {
      "inputs": [],
      "name": "LEVEL_MASTER",
      "outputs": [
        {
          "internalType": "uint256",
          "name": "",
          "type": "uint256"
        }
      ],
      "stateMutability": "view",
      "type": "function"
    },
    {
      "inputs": [],
      "name": "LEVEL_NOVICE",
      "outputs": [
        {
          "internalType": "uint256",
          "name": "",
          "type": "uint256"
        }
      ],
      "stateMutability": "view",
      "type": "function"
    },
    {
      "inputs": [],
      "name": "LEVEL_RESEARCHER",
      "outputs": [
        {
          "internalType": "uint256",
          "name": "",
          "type": "uint256"
        }
      ],
      "stateMutability": "view",
      "type": "function"
    },
    {
      "inputs": [],
      "name": "MAX_LEADERBOARD_LIMIT",
      "outputs": [
        {
          "internalType": "uint256",
          "name": "",
          "type": "uint256"
        }
      ],
      "stateMutability": "view",
      "type": "function"
    },
    {
      "inputs": [],
      "name": "POINTS_ADVANCED",
      "outputs": [
        {
          "internalType": "uint256",
          "name": "",
          "type": "uint256"
        }
      ],
      "stateMutability": "view",
      "type": "function"
    },
    {
      "inputs": [],
      "name": "POINTS_BEGINNER",
      "outputs": [
        {
          "internalType": "uint256",
          "name": "",
          "type": "uint256"
        }
      ],
      "stateMutability": "view",
      "type": "function"
    },
    {
      "inputs": [],
      "name": "POINTS_EXPERT",
      "outputs": [
        {
          "internalType": "uint256",
          "name": "",
          "type": "uint256"
        }
      ],
      "stateMutability": "view",
      "type": "function"
    },
    {
      "inputs": [],
      "name": "POINTS_INTERMEDIATE",
      "outputs": [
        {
          "internalType": "uint256",
          "name": "",
          "type": "uint256"
        }
      ],
      "stateMutability": "view",
      "type": "function"
    },
    {
      "inputs": [],
      "name": "bountyBoard",
      "outputs": [
        {
          "internalType": "address",
          "name": "",
          "type": "address"
        }
      ],
      "stateMutability": "view",
      "type": "function"
    },
    {
      "inputs": [
        {
          "internalType": "address",
          "name": "researcher",
          "type": "address"
        }
      ],
      "name": "getLevel",
      "outputs": [
        {
          "internalType": "uint256",
          "name": "level",
          "type": "uint256"
        },
        {
          "internalType": "string",
          "name": "name",
          "type": "string"
        }
      ],
      "stateMutability": "view",
      "type": "function"
    },
    {
      "inputs": [
        {
          "internalType": "address",
          "name": "researcher",
          "type": "address"
        }
      ],
      "name": "getProfile",
      "outputs": [
        {
          "components": [
            {
              "internalType": "uint256",
              "name": "totalSubmissions",
              "type": "uint256"
            },
            {
              "internalType": "uint256",
              "name": "approvedSubmissions",
              "type": "uint256"
            },
            {
              "internalType": "uint256",
              "name": "rejectedSubmissions",
              "type": "uint256"
            },
            {
              "internalType": "uint256",
              "name": "totalEarnings",
              "type": "uint256"
            },
            {
              "internalType": "uint256",
              "name": "reputationPoints",
              "type": "uint256"
            },
            {
              "internalType": "uint256",
              "name": "firstActivityAt",
              "type": "uint256"
            },
            {
              "internalType": "uint256",
              "name": "lastActivityAt",
              "type": "uint256"
            }
          ],
          "internalType": "struct ReputationSystem.ResearcherProfile",
          "name": "",
          "type": "tuple"
        }
      ],
      "stateMutability": "view",
      "type": "function"
    },
    {
      "inputs": [],
      "name": "getResearcherCount",
      "outputs": [
        {
          "internalType": "uint256",
          "name": "",
          "type": "uint256"
        }
      ],
      "stateMutability": "view",
      "type": "function"
    },
    {
      "inputs": [
        {
          "internalType": "uint256",
          "name": "limit",
          "type": "uint256"
        }
      ],
      "name": "getTopResearchers",
      "outputs": [
        {
          "internalType": "address[]",
          "name": "",
          "type": "address[]"
        },
        {
          "internalType": "uint256[]",
          "name": "",
          "type": "uint256[]"
        }
      ],
      "stateMutability": "view",
      "type": "function"
    },
    {
      "inputs": [],
      "name": "owner",
      "outputs": [
        {
          "internalType": "address",
          "name": "",
          "type": "address"
        }
      ],
      "stateMutability": "view",
      "type": "function"
    },
    {
      "inputs": [
        {
          "internalType": "address",
          "name": "",
          "type": "address"
        }
      ],
      "name": "profiles",
      "outputs": [
        {
          "internalType": "uint256",
          "name": "totalSubmissions",
          "type": "uint256"
        },
        {
          "internalType": "uint256",
          "name": "approvedSubmissions",
          "type": "uint256"
        },
        {
          "internalType": "uint256",
          "name": "rejectedSubmissions",
          "type": "uint256"
        },
        {
          "internalType": "uint256",
          "name": "totalEarnings",
          "type": "uint256"
        },
        {
          "internalType": "uint256",
          "name": "reputationPoints",
          "type": "uint256"
        },
        {
          "internalType": "uint256",
          "name": "firstActivityAt",
          "type": "uint256"
        },
        {
          "internalType": "uint256",
          "name": "lastActivityAt",
          "type": "uint256"
        }
      ],
      "stateMutability": "view",
      "type": "function"
    },
    {
      "inputs": [
        {
          "internalType": "address",
          "name": "researcher",
          "type": "address"
        },
        {
          "internalType": "uint8",
          "name": "difficulty",
          "type": "uint8"
        },
        {
          "internalType": "uint256",
          "name": "earnings",
          "type": "uint256"
        }
      ],
      "name": "recordApprovedSubmission",
      "outputs": [],
      "stateMutability": "nonpayable",
      "type": "function"
    },
    {
      "inputs": [
        {
          "internalType": "address",
          "name": "researcher",
          "type": "address"
        }
      ],
      "name": "recordRejectedSubmission",
      "outputs": [],
      "stateMutability": "nonpayable",
      "type": "function"
    },
    {
      "inputs": [],
      "name": "renounceOwnership",
      "outputs": [],
      "stateMutability": "nonpayable",
      "type": "function"
    },
    {
      "inputs": [
        {
          "internalType": "uint256",
          "name": "",
          "type": "uint256"
        }
      ],
      "name": "researchers",
      "outputs": [
        {
          "internalType": "address",
          "name": "",
          "type": "address"
        }
      ],
      "stateMutability": "view",
      "type": "function"
    },
    {
      "inputs": [
        {
          "internalType": "address",
          "name": "_bountyBoard",
          "type": "address"
        }
      ],
      "name": "setBountyBoard",
      "outputs": [],
      "stateMutability": "nonpayable",
      "type": "function"
    },
    {
      "inputs": [
        {
          "internalType": "address",
          "name": "newOwner",
          "type": "address"
        }
      ],
      "name": "transferOwnership",
      "outputs": [],
      "stateMutability": "nonpayable",
      "type": "function"
    }
  ],
  "bytecode": "0x608060405234801561001057600080fd5b5060405161103a38038061103a83398101604081905261002f916100fb565b338061005557604051631e4fbdf760e01b81526000600482015260240160405180910390fd5b61005e816100ab565b506001600160a01b0381166100865760405163d92e233d60e01b815260040160405180910390fd5b600180546001600160a01b0319166001600160a01b039290921691909117905561012b565b600080546001600160a01b038381166001600160a01b0319831681178455604051919092169283917f8be0079c531659141344cd1fd0a4f28419497f9722a3daafe3b4186f6b6457e09190a35050565b60006020828403121561010d57600080fd5b81516001600160a01b038116811461012457600080fd5b9392505050565b610f008061013a6000396000f3fe608060405234801561001057600080fd5b50600436106101585760003560e01c80637e339a9c116100c3578063c20f07a31161007c578063c20f07a314610354578063c51a978d14610367578063d81be5691461037a578063dad26dd014610382578063f10c41af1461038a578063f2fde38b1461039357600080fd5b80637e339a9c1461028a578063817c8966146102925780638da5cb5b146102b3578063a300a35f146102c4578063a4b26268146102cc578063bbe15627146102d457600080fd5b806345674e2d1161011557806345674e2d146102375780634cbb0f1214610262578063555976be1461026a57806364c25aa814610272578063715018a61461027a5780637c426e1d1461028257600080fd5b80630a0f03f91461015d5780630f53a4701461017257806315155a4f146101e45780632c12ce971461020557806333c319961461021b5780633f5dd82c1461022e575b600080fd5b61017061016b366004610cfc565b6103a6565b005b610185610180366004610d41565b6104fe565b6040516101db9190600060e082019050825182526020830151602083015260408301516040830152606083015160608301526080830151608083015260a083015160a083015260c083015160c083015292915050565b60405180910390f35b6101f76101f2366004610d63565b6105a7565b6040516101db929190610d7c565b61020d609681565b6040519081526020016101db565b610170610229366004610d41565b610848565b61020d6101f481565b60015461024a906001600160a01b031681565b6040516001600160a01b0390911681526020016101db565b61020d600081565b61020d600881565b61020d606481565b61017061090d565b61020d600a81565b60035461020d565b6102a56102a0366004610d41565b610921565b6040516101db929190610e00565b6000546001600160a01b031661024a565b61020d603281565b61020d600281565b61031f6102e2366004610d41565b6002602081905260009182526040909120805460018201549282015460038301546004840154600585015460069095015493959492939192909187565b604080519788526020880196909652948601939093526060850191909152608084015260a083015260c082015260e0016101db565b610170610362366004610d41565b610a77565b61024a610375366004610d63565b610af8565b61020d600181565b61020d600481565b61020d6103e881565b6101706103a1366004610d41565b610b22565b6001546001600160a01b031633146103d1576040516320c86c4d60e21b815260040160405180910390fd5b6103da83610b65565b6001600160a01b038316600090815260026020526040812080549091829061040183610e6c565b909155505060018101805490600061041883610e6c565b9190505550818160030160008282546104319190610e85565b9091555050426006820155600061044784610c20565b90508082600401600082825461045d9190610e85565b90915550506040805160018152602081018590526001600160a01b038716917f9eec6752836ba5dcd4788111a1021da6e64760fbc26950d70d3850b926b44931910160405180910390a2846001600160a01b03167f5b88a2e3fc1a53234357ab78c104df11c33ccfa79886793654565ad70b8afb6e8284600401546040516104ef929190918252602082015260400190565b60405180910390a25050505050565b61053e6040518060e00160405280600081526020016000815260200160008152602001600081526020016000815260200160008152602001600081525090565b506001600160a01b0316600090815260026020818152604092839020835160e0810185528154815260018201549281019290925291820154928101929092526003810154606083015260048101546080830152600581015460a08301526006015460c082015290565b60608060648311156105cc576040516342027b1360e11b815260040160405180910390fd5b60035460009084116105de57836105e2565b6003545b905060008167ffffffffffffffff8111156105ff576105ff610e9e565b604051908082528060200260200182016040528015610628578160200160208202803683370190505b50905060008267ffffffffffffffff81111561064657610646610e9e565b60405190808252806020026020018201604052801561066f578160200160208202803683370190505b5090508260000361068557909590945092505050565b60035460009067ffffffffffffffff8111156106a3576106a3610e9e565b6040519080825280602002602001820160405280156106cc578160200160208202803683370190505b50905060005b8481101561083b576000806000805b60035481101561077c578581815181106106fd576106fd610eb4565b602002602001015161076a576000600260006003848154811061072257610722610eb4565b60009182526020808320909101546001600160a01b03168352820192909252604001902060040154905082158061075857508481115b1561076857809450819350600192505b505b8061077481610e6c565b9150506106e1565b50600185838151811061079157610791610eb4565b602002602001019015159081151581525050600382815481106107b6576107b6610eb4565b9060005260206000200160009054906101000a90046001600160a01b03168785815181106107e6576107e6610eb4565b60200260200101906001600160a01b031690816001600160a01b0316815250508286858151811061081957610819610eb4565b602002602001018181525050505050808061083390610e6c565b9150506106d2565b5091969095509350505050565b6001546001600160a01b03163314610873576040516320c86c4d60e21b815260040160405180910390fd5b61087c81610b65565b6001600160a01b03811660009081526002602052604081208054909182906108a383610e6c565b90915550506002810180549060006108ba83610e6c565b909155505042600682015560408051600080825260208201526001600160a01b038416917f9eec6752836ba5dcd4788111a1021da6e64760fbc26950d70d3850b926b44931910160405180910390a25050565b610915610c63565b61091f6000610c90565b565b6001600160a01b0381166000908152600260205260408120600401546060906103e8811061097457600560405180604001604052806006815260200165131959d95b9960d21b8152509250925050915091565b6101f481106109a85760046040518060400160405280600681526020016526b0b9ba32b960d11b8152509250925050915091565b609681106109db57600360405180604001604052806006815260200165115e1c195c9d60d21b8152509250925050915091565b60328110610a155760026040518060400160405280600d81526020016c21b93cb83a37b3b930b83432b960991b8152509250925050915091565b600a8110610a4c5760016040518060400160405280600a8152602001692932b9b2b0b931b432b960b11b8152509250925050915091565b6000604051806040016040528060068152602001654e6f7669636560d01b8152509250925050915091565b610a7f610c63565b6001600160a01b038116610aa65760405163d92e233d60e01b815260040160405180910390fd5b600180546001600160a01b038381166001600160a01b0319831681179093556040519116919082907f56b792257697cfe25a0e0fb2a9886965114766f561970988094f9a65e538273c90600090a35050565b60038181548110610b0857600080fd5b6000918252602090912001546001600160a01b0316905081565b610b2a610c63565b6001600160a01b038116610b5957604051631e4fbdf760e01b8152600060048201526024015b60405180910390fd5b610b6281610c90565b50565b6001600160a01b03811660009081526004602052604090205460ff16610b62576001600160a01b0381166000818152600460209081526040808320805460ff191660019081179091556003805491820190557fc2575a0e9e593c00f959f8c92f12db2869c3395a3b0502d05e2516446f71f85b0180546001600160a01b03191685179055600290915280822042600590910155517ffe8f384bc0d60cab4c97dca9feb8ea45910e4d850997b743517b58da54f4909a9190a250565b60008160ff16600403610c3557506008919050565b8160ff16600303610c4857506004919050565b8160ff16600203610c5b57506002919050565b506001919050565b6000546001600160a01b0316331461091f5760405163118cdaa760e01b8152336004820152602401610b50565b600080546001600160a01b038381166001600160a01b0319831681178455604051919092169283917f8be0079c531659141344cd1fd0a4f28419497f9722a3daafe3b4186f6b6457e09190a35050565b80356001600160a01b0381168114610cf757600080fd5b919050565b600080600060608486031215610d1157600080fd5b610d1a84610ce0565b9250602084013560ff81168114610d3057600080fd5b929592945050506040919091013590565b600060208284031215610d5357600080fd5b610d5c82610ce0565b9392505050565b600060208284031215610d7557600080fd5b5035919050565b604080825283519082018190526000906020906060840190828701845b82811015610dbe5781516001600160a01b031684529284019290840190600101610d99565b5050508381038285015284518082528583019183019060005b81811015610df357835183529284019291840191600101610dd7565b5090979650505050505050565b82815260006020604081840152835180604085015260005b81811015610e3457858101830151858201606001528201610e18565b506000606082860101526060601f19601f830116850101925050509392505050565b634e487b7160e01b600052601160045260246000fd5b600060018201610e7e57610e7e610e56565b5060010190565b80820180821115610e9857610e98610e56565b92915050565b634e487b7160e01b600052604160045260246000fd5b634e487b7160e01b600052603260045260246000fdfea2646970667358221220aebd7f5b173a25cf0eb25e169984139076747368dee91948f936b473e720c84664736f6c63430008140033",
  "linkReferences": {},
  "deployedLinkReferences": {}
}